S01A000041546D6567613332415F4669726D576172652E73726563B9
S11300000C942A000C943C000C943C000C943C008E
S11300100C943C000C943C000C943C000C943C006C
S11300200C943C000C943C000C943C000C943C005C
S11300300C943C000C943C000C943C000C943C004C
S11300400C943C000C943C000C943C000C943C003C
S11300500C943C0011241FBECFE5D8E0DEBFCDBF19
S113006020E0A0E6B0E001C01D92A036B207E1F79F
S11300700E943E000C94E3000C94000042E068E00F
S113008089E390E00E946F00C0E0D8E012C041E034
S11300906C2F89E390E00E94BD002FEF84E39CE085
S11300A0215080409040E1F700C00000CF5F01C0C4
S11300B0C0E0C83060F3CD2F40E06C2F89E390E0BE
S11300C00E94BD002FEF84E39CE0215080409040CB
S11300D0E1F700C00000C150C13071F7E9CFFC0165
S11300E04130D9F018F0423081F10895683091F030
S11300F0218181E090E0AC0102C0440F551F6A9554
S1130100E2F7BA016095862F822381838281682376
S113011062830895118212820895683091F02181DA
S113012081E090E0AC0102C0440F551F6A95E2F7EC
S1130130BA01842F8095822381838281682B628314
S1130140089511828FEF82830895683091F02181A0
S113015081E090E0AC0102C0440F551F6A95E2F7BC
S1130160BA01822F842B8183828160956823628304
S113017008958FEF818312820895683009F1413028
S113018079F4FC01428121E030E0F90102C0EE0F74
S1130190FF1F6A95E2F7BF01642BFC016283089597
S11301A0FC01428121E030E0F90102C0EE0FFF1FA3
S11301B06A95E2F7BF0160956423FC0162830895A8
S10D01C0FC0142830895F894FFCF78
S9030000FC
